:400000000080002011000000710B0000710B0000034A08B51268034B1A6000F0C9FD00BFFA460040BC76004010B5054C237833B9044B13B10448AFF300800123237010BDC2
:4000400078B3FF1F00000000242A0000084B10B51BB108490848AFF300800848036803B910BD074B002BFBD0BDE81040184700BF000000007CB3FF1F242A0000C880FF1FA2
:40008000000000002DE9F04FADF5175D85B0C44C24AD0FCC0FC50FCC0FC50FCC26460FC594E8070085E807003022002118A802F08CF83C22002133A802F087F854F80C0F74
:4000C00008AD6168A268E368B4F81CE00FC520696169A26910AC07C556F82C0FA5F800E07168B268F368CBAF0FC430697169B269B38B07C40DF2CF5523803C24384600945B
:40010000042391220F212D3700F082FBAF42F5D1D4AB0DF2313403F521773226204600961023B9220F212D3400F072FBBC42F5D1D4AB0DF2363403F28927232620460096D4
:400140001E23FF220F212D3400F062FBBC42F5D1D4AB0DF23B3403F28E273226204600965A23D2220F212D3400F052FBA742F5D1D4ABD0AC03F293274C26204600969623D1
:40018000A7220F212D3400F043FBA742F5D1D4AB0DF2453403F526774C2620460096AF2382220F212D3400F033FBA742F5D1D4AB0DF24A3403F29D274C262046009696235E
:4001C000A7220F212D3400F023FBA742F5D1D4AB0DF24F3403F2A2273226204600965A23D2220F212D3400F013FBA742F5D1D4ABD5AC03F2A7272326204600961E23FF22BC
:400200000F212D3400F004FBA742F5D10DF259343226204600961023B9220F212D3400F0F7FAAC42F5D18722CBA942A800F096FA4FF4FA7000F078FD00F01EFD00F06AFE7F
:4002400000F040FF01F0B8F801F008F9002001F06BF9012001F074F9002001F0A1F801F081F901F09FF901F081F862B64D4801F0CBF8C9AB42AC0793042120460C4401F097
:400280003FF9079B9C42F7D10821C9A801F038F9DFF81CA1444B1B78002BFBD0012001F07FF84FF00002404B0DF5BA653F4C1A7005F6FE7000211AF8F82C3B4B01EBC222B5
:4002C00003EB4202938834F9026F1BB203FB06F39B1325F8023B4FF000030131B1F5006F20F8023FE7D10DF5BA6000F0ABF80DF11E0306930DF13E030026059323AB0396E2
:400300000493059B0DF5BA6033F9022FF7B20593069B33F9021F069300F072F83346049A093652F8045F33A905FB00F00492039A850BB34241F822503CDA4FF0010902EB6D
:40034000C20411E033F8F43C0F219D42404623D8002100F06DFA07EB0903DBB209F101099E425FFA89F925DD03EB8303CBAA02EB0308404600F058FA09F1FF3B5FFA8BFB5B
:4003800004EB0B030AEB43030028DBD19B8B0F219D4298BF0146404600F04AFADBE700BF282A0000A42A000094B3FF1FCA80FF1FC491FF1F039B01330F2B0393A1D1872206
:4003C000CBA942A800F0CAF9079D42AC042120460C4401F095F8A542F8D1C9A8082101F08FF8339A054918A801F0F8FE18A801F00BF8002000F0D4FF4CE700BFB42A000016
:400400008A4238B51ADB002500EB410303F58053B3F9004030F9113004FB04F403FB0343013109B28A421D44EEDA680001F058FB01F0E2F801F06AFE00B238BD00200021C4
:40044000F6E700BF2DE9F04FADF5C04D91B00F904FF48042002107460DF5015001F0B5FE0DF58045002110A84FF4005201F0ADFE0DF501544035002101F002039B02002B16
:4004800015BF4FF4007000204FF440734FF4807311F0040F18BF184611F0080F40F0800318BF184611F0100F40F0400318BF184611F0200F40F0200318BF184611F0400F50
:4004C00040F0100318BF184611F0800F40F0080318BF184611F4807F40F0040314BF1A4602468EB2731C1BB203F0020E4FEA8E2E11F4007F42F0020008BF1046BEF1000FA7
:4005000015BF4FF4C06E4FF4806E4FF4E0624FF4A06213F0040F18BF964613F0080F4EF0800218BF964613F0100F4EF0400218BF964613F0200F4EF0200218BF964613F088
:40054000400F4EF0100218BF964613F0800F4EF0080218BF964613F4807F4EF0040218BF964613F4007F4EF0020208BF724611F4806F18BF40F0010013F4806F18BF42F05D
:40058000010237F9103037F91200B11C1A181B1A52105B1084E80C000834A54209B27FF46BAF02230E9300252B460E99012000FA01F64FF4006040FA01FE4A1E0FFA8EF1C1
:4005C0000991012101FA02F237B21FFA8EFE0892614903F5006231F81340734431F812001BB22AB20DF1400C02F50061B3F5006F2CF8124005F101052CF81100E8DB0023C7
:40060000069307937B10013B9BB201330593B3B20D93634608984200911E0B440C93634602F6FE7213440B9300F500630A93BDF918700DF5015303EB8709089B07F5006C62
:4006400007EB030E0A9BA9F104091F440DF5015303EB8C0C03EB8E0E03EB87070DF13E0303930DF581531E33DDF82CA0DDF830B0CDF8049002934FF00008039ADEF80040AC
:400680003B6832F9021F3BF9020F64105B1001FB04F5039201FB03F200FB03F100FB04F60298049130F9021F08F1010801FB1355029001FB04213AF9020F049A00FB1363E3
:4006C00000FB0420019A52F8046F0192DCF800207610521002EBA13106EBA33306EBA53549F8045F4CF8041B4EF8043B059B02EBA032984547F8042BBFD1069A0D99079B15
:400700000A4492B201330692099A07931BB29A428DDC0E9B01330C2B0E937FF444AF0F990DF5015303F5FF508C1E01F6FE721C30043B002153F8046F50F8045F0131B1F5AE
:40074000006F24F8026F22F8025FF3D10DF5C04D11B0BDE8F08F00BFF092FF1F0023F0B4037043708370C370071D002A4ED09600B41801340C443E444B1CB34238BFA742C7
:400780002DD343EA0704012AC4F3010494BF00250125002C18BF00250DB318463B4602F18045013D07EB8505013A50F8054B43F8044B9D42F9D193009818014448783B4476
:4007C00007F822008A785A70CA789A700A79DA70FF2333707370B370F370F0BC7047013207EB820208304B78043000F8083C8B78053100F8073C11F8023C00F8063C11F850
:40080000013C00F8053C8242EDD1E1E73E46DFE710B49DF8044061F01F0104718270C370417010BC704700BF407800F01F00704761F01F01417070472DE9F04172B64EF609
:400840005F2742F251249E489E49612606709E4A00260E809D4B502616709D4D13261E8018232B70A0F5EF604D250580994E9A4D8B7254215181337098492F8019260227E0
:4008800086724FF0402582F87E7208260320944A2E7008701278934FD2B21A2692483A70A5F82262914A00680C841578A1F5807108604FF4F0701C4605F00105164600F07D
:4008C0008BFE01E0032D0DD033784FF4F07003F0010343EA450500F07FFE013C05F00305F0D1FEE7824E834B354683484FF480771F808249002207271F70027048200870BF
:400900007F4F80481A704FF0020E042387F800E0037091F89A33144643F01F037A4A81F89A33137843F00103137091F8983343F0800381F8983392F8473343F0040382F8F5
:40094000473304EB4403AA8856F813000134002101F03BFC072C05F10605F2D180226B496B4801F027FC6B4E6B4F002556F8043F13F0FF0E23F0FF0413D005F110530EF118
:40098000FF3E03F149005FFA8EFE7044483340005B001A785978023383421155F9D101357544BE42E2D140F203225C485C4B5D490A2404701A800B785B4A43F002030B7080
:4009C00013785A4C43F0020313702378A1F5863143F04003237041390A785548554E42F010020025544B0A700560544D03CB3060716093E8070003C50C332A80504A03CB8C
:400A0000C5F82A00C5F82E1003CBA83D1060516093E8070003C5A6F55E662A803278494D42F008020C3303CB32702B78464FDBB2464D03F0070CDFF828E11B0987F800C0E1
:400A400006F5A9562B70424A04250227414B37708EF80050404F4FF0010E10605160A6F2257683F800E0DFF8FCC0DFF8FCE04FF0C00894E80F0086F8008020243D7008257A
:400A80008CF800408EF800504FF0100E86F873E9DFF8D8E087F8C3408EF8004086F8E35987F8F4402D4C06F2597644278EF88450377007C40EF1840E2380BDE8F08100BFA1
:400AC00000480040804000408240004084400040864000408E400040904000400042004008010049A14600401C07004825420040BC2A0000044000400640004008400040BF
:400B0000014000400B400040A14300406406004880040140FCFFFF478C000048835800404C5800400350014013500140A04300400076004002510040E4060048C0510040D3
:400B400012510040CF0100496E5800406F580040325100400D510040105A0040B0430040A7430040135A0040185A0040D45A004008B501F0F3FA03680C2B00D0FEE7FEE7A0
:400B8000094908B50A68094B1044C31A802B02DC0860104608BD01F0E1FA0C234FF0FF320360104608BD00BFF0B2FF1FC8D3FF1F80B5134FF7B1134E002556F80C0C56F889
:400BC000084C56F8102C03463CB1043A52F8041F43F8041B191AA142F8D156F8040C1A4620B142F8045BD11A8842FAD1013F06F11006E2D101F0B8FAFFF744FAFEE700BFDA
:400C0000010000005C2B000008B5114A114B12491A600B68114A43F4007311480B600023032B94BF50F823100E490133302B42F8041FF5D10C4B0D4918780D4A0D4B08701B
:400C40001A60FFF7F9FDBDE8084000F055B800BF0004FA050CED00E014ED00E0FC7FFF1F00000000710B0000BC760040C080FF1F0080FF1F08ED00E010B4194A1178F1B9F6
:400C80001848194B0C2404701C7844F020041C7081708178012401F08001C9B28170817821438170197801F0F3011970197841F00C011970197801F0FC01197014700B48E3
:400CC0000B4903780B4A43F0020303700B7843F002030B70137843F08003137010BC70479FD3FF1F0458004005580040A9430040B9430040775800407F200346074910B46C
:400D0000074A802408704C70013BDBB202F80839002BF9D1034A137010BC7047F4B2FF1FF87B004000780040B0F5004F70B506461AD904460D4DA4F50044686800F04CFC2E
:400D4000B4F5004FF7D8A6F50043013B23F4FF4323F07F03A6F50046F61AA86800FB06F0BDE8704000F038BC004DF6E7FCB2FF1F024B1B7800FB03F000F02EBCFCB2FF1F0F
:400D8000064B1F281A6800D901BE00F01F0000F1100352F8230042F82310704708ED00E0072900D901BE1F2800D901BE00F01F0000F16040490100F56440C9B2017070473B
:400DC0002DE9F047424D434E434C4FF0380E85F800E0424B4FF0040E4FF00708404886F800E0404A84F800803F4F00243F491C7004703F2010703C700C70AC720125B574CF
:400E0000502683F8806A3A48132682F87F6A4FF0440A2B26067087F87F4A81F881AA482183F8871A334E022382F8863A32490372122333702820EB23087082F88B3A00F04F
:400E4000D3FB8146A7F5E2673B78A6F58C5643F00303163E3B703378284A43F003033370032082F800A0FFF783FF3B78484603F0FC033B70337807F58C5703F0FC033370E5
:400E800006F58C5600F0B4FB1B361D4B4FF0580E86F800E01D374FF0050E1A491A4A3C7083F800E00A27194B0D704046147029464FF47A5277721A6000F034F929461D20C0
:400EC00000F0ACF9BDE8F04711491D20FFF758BF004E0040024E0040034E0040044E0040054E0040064E0040084E0040094E0040865800408F5800409058004092580040B1
:400F00009A5800409B5800409C580040BCD3FF1F21110000F8B5584C637A002B5DD1A37A564D03F0FF06002B59D00123637200F05BFB534A2B781178524B41F0010111704D
:400F40001178514D41F0100111701A784F4C42F001021A701A784E4942F010021A702B78064643F002032B702378032043F0020323700B7803430B70FFF7FAFE2B784549F6
:400F800003F0FD032B702378434803F0FD0323700B78424A7A2443F006030B7004701378A1F5A65143F00103137006390B783C4D43F001030B7053783A4C43F00103537005
:400FC0004B784FF0005243F001034B7030462A602260BDE8F84000F00BBB284DA7E7012310202B70267000F00FF9102000F086F907211D20FFF7D4FE49F25B112A4A2B48BC
:401000002B4B0427177006701E7092F87132294F43F0180382F871326FF4417E264B00F8046C3E7082F8F36277440A221A7000F8166C224A3E705B271F725E271770A3F63F
:401040007F23142200F80A6C1A702B780F22A27104EB83039A781A4BA1801A702A7834F8222023F8022C2B782672012B7FF45DAFFFF7A6FE59E700BFA0D3FF1F0CB3FF1FDC
:40108000AA430040BA430040F8460040F9460040915800407758004082580040A143004080E200E000E100E096580040975800409E580040885B0040805800408958004061
:4010C0000E4E0040024A137843F0010313707047004E00400D4B1B7803F00303012B11D9032B0B4A0B4908BF0B4B1278087808BF1B7842EA0020094B1A7A0AB100221A7091
:4011000000B27047024B188880B2F4E7144E0040104E0040114E0040124E0040A0D3FF1F704700BFF0B4314D314E2A7833889BB298420BD02F4C02F007022478E4B24AB91B
:4011400033B930802B7803F0BF032B70F0BC7047002843D014F0010422D0274F274D284E00223A7001272F70327015F8082C02F07F0205F8082C96F86E2016072BD41E4A2D
:40118000204F154607263B8016702B781A4A13F00103FAD1174E357805F0FE0535701370144B1A78D5070FD56FF4687213441A460029144C14BF03210121208019701378F1
:4011C000DB07FCD4F0BC7047094A10801A7814431C70F0BC70470028E2D1D0E72B7843F040032B703080F0BC704700BF8240004080400040A24300400140004010400040CF
:401200001440004002400040034A00F0F800137818431070704700BF82400040F0B4304D304E2A7833889BB298420BD02E4C02F007022478E4B24AB933B930802B7803F0AB
:40124000BF032B70F0BC7047002842D014F0010422D0264F264D0022264E3A7001272F70327015F80C2C02F07F0205F80C2C96F8F22015072AD41D4A1F4F154607263B8029
:4012800016702B78194A13F00103FAD1164E357805F0FE0535701370134B1A78D2070ED5A3F568731A460029134C14BF03210121208019701378DB07FCD4F0BC7047094A63
:4012C00010801A7814431C70F0BC70470028E3D1D1E72B7843F040032B703080F0BC70470241004000410040A143004001400040144000401040004002400040034A00F09F
:40130000F800137818431070704700BF02410040F8B5114D114F3C782B88E6B29CB2631C9BB22B80FFF7D6FE0D4B04EBC62423F814002B889BB2B3F5006F0CD13B78094A03
:40134000DBB213703B78084A83F00103002001213B7028801170F8BD9CD3FF1F9ED3FF1F98B3FF1FCC90FF1F94B3FF1F70B4074B074E1C68074D08490423084AE0203360B2
:40138000A564087070BC1360704700BF08ED00E080E100E01113000002E400E000E100E0044A137803F07F0343EAC010C0B21070704700BF20510040F8B50E4B1A784AB9D7
:4013C0000D4E0E4C0E48062747250121377025700270197000F008F904460A4A137843F01003137000F02AF82046BDE8F84000F0FFB800BFB0D3FF1F24650040346500400F
:401400008665004096650040094B1B787BB130B404785CB1074A084D002113785B07FCD4013189B22C70445C002CF6D130BC7047B0D3FF1F66650040466500400549064ACE
:401440000B7843F008030B70137843F008031370704700BFA2430040B243004070B51E4C2378A3B11D4C00F0BFF823781C4943F0200323700B781B4A43F010030B70137869
:4014800043F010031370BDE8704000F0B1B8164B0F21164A19701378990604D514490B7813789B06FBD400F09FF80C4B114E1A780E4D42F001021A701A7802F0FE021A7066
:4014C00000F096F80C480D490023012236782D7803700B702270C5E7B2D3FF1F9564004096640040946400408564004064640040556400406664004086640040846400402B
:4015000069B170B4064A074E0024055D13785B07FCD50134E4B2A1423570F6D170BC70476664004045640040044A137803F07F0343EAC010C0B21070704700BF0051004050
:40154000044AC000137800F0080003F0F703184310707047F0510040014B02221A7070479AD3FF1F70B4074B074E1C68074D08490223084AE02033606564087070BC1360C0
:40158000704700BF08ED00E080E100E05915000001E400E000E100E0014B01221A7070479AD3FF1F70B4074B074E1C68074D08490123084AE02033602564087070BC1360D3
:4015C000704700BF08ED00E080E100E09915000000E400E000E100E00230800803D000BF01380046FCD17047EFF3108072B6704780F31088704700BF2DE9F04F8BB0044631
:401600000D4600F055F8284B064693F900A00F46BAF1FF3F12D022462B462046294600F05FFD834650B94FF000084FF000092046294642464B4600F02BFD20B930463946E0
:401640000BB0BDE8F08F194A0123CDF820B0CDE90445CDE9024501920093BAF1000F15D042464B464046494600F0CAFBBAF1020FCDE906010CD100F071FD21230360089BCD
:4016800063B9DDE906010BB0BDE8F08FCDE90689684600F0D1F80028F1D1ECE700F05EFD089B0360EDE700BF0DB3FF1FE82A00002DE9F0415F4E0C46B6460E40764505468F
:4016C00000F0988000290B46024674DD5FEA215E7FD0AEF2FF3EC3F313031EF0010F43F4801363D100273E4603EBD2710B444FEA6E0E520016204FF4001174189C424FEA94
:40170000D2754FEA420202DC1B1B66180F44013805EB43034FEA5101EFD1844620244FF0004109E020D003EBD275013C4FEA51012B444FEA420220D09E4201EB0C05F1DA5E
:40174000002D05EB010C09DBB0469542A3EB060300D9013B4646521B0844E4E7BCF1000FF2DB06F10108F0E7954217D8002D05EB010C49DB98460023ECE7134310D140080B
:401780007B1003F17F5303F50013FA0703EB0E57394648BF40F00040BDE8F0813346C2E7411C35D000F001031844E8E75B0003EBD273520096E721F000460643ECD079BBDD
:4017C0008E46D30AAEF1150E5205002BF9D0DD0221D4002100E001465B00DC0201F10100F9D5C0F1200422FA04F42343C1EB0E0E82406EE702460B4600F0D8F92A462346B4
:4018000000F022F8BDE8F081BCF1000FA9DAB1E701372046B4E720244FF0FF310020E2E702460B4600F00EF802460B4600F0E8FAB2E700BF0000F07F0020704781F0004192
:4018400002E000BF83F0004330B54FEA41044FEA430594EA050F08BF90EA020F1FBF54EA000C55EA020C7FEA645C7FEA655C00F0E2804FEA5454D4EB5555B8BF6D420CDDD6
:401880002C4480EA020281EA030382EA000083EA010180EA020281EA0303362D88BF30BD11F0004F4FEA01314FF4801C4CEA113102D0404261EB410113F0004F4FEA0333D3
:4018C0004CEA133302D0524263EB430394EA050F00F0A780A4F10104D5F1200E0DDB02FA0EFC22FA05F2801841F1000103FA0EF2801843FA05F359410EE0A5F120050EF163
:40190000200E012A03FA0EFC28BF4CF0020C43FA05F3C01851EBE37101F0004507D54FF0000EDCF1000C7EEB00006EEB0101B1F5801F1BD3B1F5001F0CD349085FEA3000DC
:401940004FEA3C0C04F101044FEA445212F5800F80F09A80BCF1004F08BF5FEA500C50F1000041EB045141EA050130BD5FEA4C0C404141EB010111F4801FA4F10104E9D16D
:4019800091F0000F04BF01460020B1FA81F308BF2033A3F10B03B3F120020CDA0C3208DD02F1140CC2F10C0201FA0CF021FA02F10CE002F11402D8BFC2F1200C01FA02F191
:4019C00020FA0CFCDCBF41EA0C019040E41AA2BF01EB0451294330BD6FEA04041F3C1CDA0C340EDC04F11404C4F1200220FA04F001FA02F340EA030021FA04F345EA0301F9
:401A000030BDC4F10C04C4F1200220FA02F001FA04F340EA0300294630BD21FA04F0294630BD94F0000F83F4801306BF81F480110134013D4EE77FEA645C18BF7FEA655CF1
:401A400029D094EA050F08BF90EA020F05D054EA000C04BF1946104630BD91EA030F1EBF0021002030BD5FEA545C05D14000494128BF41F0004130BD14F580043CBF01F510
:401A8000801130BD01F0004545F0FE4141F470014FF0000030BD7FEA645C1ABF194610467FEA655C1CBF0B46024650EA013406BF52EA033591EA030F41F4002130BD00BFA0
:401AC00090F0000F04BF0021704730B54FF4806404F132044FF000054FF0000150E700BF90F0000F04BF0021704730B54FF4806404F1320410F0004548BF40424FF000019C
:401B00003EE700BF42004FEAE2014FEA31014FEA02701FBF12F07F4393F07F4F81F06051704792F0000F14BF93F07F4F704730B54FF4607401F0004521F0004120E700BFCB
:401B400050EA010208BF704730B54FF000050AE050EA010208BF704730B511F0004502D5404261EB41014FF4806404F132045FEA915C3FF4DCAE4FF003025FEADC0C18BF39
:401B800003325FEADC0C18BF033202EBDC02C2F1200300FA03FC20FA02F001FA03FE40EA0E0021FA02F11444C1E600BF70B54FF0FF0C4CF4E06C1CEA11541DBF1CEA13555D
:401BC00094EA0C0F95EA0C0F00F0DEF82C4481EA030621EA4C5123EA4C5350EA013518BF52EA033541F4801143F4801338D0A0FB02CE4FF00005E1FB02E506F00042E0FBDC
:401C000003E54FF00006E1FB03569CF0000F18BF4EF0010EA4F1FF04B6F5007F64F5407404D25FEA4E0E6D4146EB060642EAC62141EA55514FEAC52040EA5E504FEACE2E3F
:401C4000B4F1FD0C88BFBCF5E06F1ED8BEF1004F08BF5FEA500E50F1000041EB045170BD06F0004646EA010140EA020081EA0301B4EB5C04C2BFD4EB0C0541EA045170BD18
:401C800041F480114FF0000E013C00F3AB8014F1360FDEBF002001F0004170BDC4F10004203C35DA0C341BDC04F11404C4F1200500FA05F320FA04F001FA05F240EA0200F0
:401CC00001F0004221F0004110EBD37021FA04F642EB06015EEA430E08BF20EAD37070BDC4F10C04C4F1200500FA04F320FA05F001FA04F240EA020001F0004110EBD370D2
:401D000041F100015EEA430E08BF20EAD37070BDC4F1200500FA05F24EEA020E20FA04F301FA05F243EA020321FA04F001F0004121FA04F220EA020000EBD3705EEA430E29
:401D400008BF20EAD37070BD94F0000F0FD101F00046400041EB010111F4801F08BF013CF7D041EA060195F0000F18BF704703F00046520043EB030313F4801F08BF013DDD
:401D8000F7D043EA0603704794EA0C0F0CEA135518BF95EA0C0F0CD050EA410618BF52EA4306D1D181EA030101F000414FF0000070BD50EA410606BF1046194652EA43061F
:401DC00019D094EA0C0F02D150EA013613D195EA0C0F05D152EA03361CBF104619460AD181EA030101F0004141F0FE4141F470014FF0000070BD41F0FE4141F4780170BD7B
:401E000070B54FF0FF0C4CF4E06C1CEA11541DBF1CEA135594EA0C0F95EA0C0F00F0A7F8A4EB050481EA030E52EA03354FEA013100F088804FEA03334FF0805545EA13136D
:401E400043EA12634FEA022245EA111545EA10654FEA00260EF000419D4208BF964244F1FD0404F5407402D25B084FEA3202B61A65EB03055B084FEA32024FF480104FF4B9
:401E8000002CB6EB020E75EB030E22BFB61A754640EA0C005B084FEA3202B6EB020E75EB030E22BFB61A754640EA5C005B084FEA3202B6EB020E75EB030E22BFB61A7546F0
:401EC00040EA9C005B084FEA3202B6EB020E75EB030E22BFB61A754640EADC0055EA060E18D04FEA051545EA16754FEA06164FEAC30343EA52734FEAC2025FEA1C1CC0D11B
:401F000011F4801F0BD141EA00014FF000004FF0004CB6E711F4801F04BF01430020B4F1FD0C88BFBCF5E06F3FF6AFAEB5EB030C04BFB6EB020C5FEA500C50F1000041EB09
:401F4000045170BD0EF0004E4EEA113114EB5C04C2BFD4EB0C0541EA045170BD41F480114FF0000E013C90E645EA060E8DE60CEA135594EA0C0F08BF95EA0C0F3FF43BAFCB
:401F800094EA0C0F0AD150EA01347FF434AF95EA0C0F7FF425AF104619462CE795EA0C0F06D152EA03353FF4FDAE1046194622E750EA410618BF52EA43067FF4C5AE50EAC1
:401FC00041047FF40DAF52EA43057FF4EBAE12E74FF0FF3C06E000BF4FF0010C02E000BF4FF0010C4DF804CD4FEA410C7FEA6C5C4FEA430C18BF7FEA6C5C1BD001B050EA59
:40200000410C0CBF52EA430C91EA030F02BF90EA020F0020704710F1000F91EA030F58BF994208BF90422CBFD8176FEAE37040F0010070474FEA410C7FEA6C5C02D150EAF3
:40204000013C07D14FEA430C7FEA6C5CD6D152EA033CD3D05DF8040B704700BF8446104662468C461946634600E000BF01B5FFF7B7FF002848BF10F1000F01BD4DF808ED19
:40208000FFF7F4FF0CBF012000205DF808FB00BF4DF808EDFFF7EAFF34BF012000205DF808FB00BF4DF808EDFFF7E0FF94BF012000205DF808FB00BF4DF808EDFFF7CEFFF9
:4020C00094BF012000205DF808FB00BF4DF808EDFFF7C4FF34BF012000205DF808FB00BF4FEA410C7FEA6C5C02D150EA013C0AD14FEA430C7FEA6C5C02D152EA033C02D141
:402100004FF0000070474FF0010070474FEA410212F5001215D211D56FF47873B3EB625212D94FEAC12343F0004343EA505311F0004F23FA02F018BF404270474FF00000B4
:40214000704750EA013005D111F0004008BF6FF0004070474FF00000704700BF014B1868704700BF70B3FF1F0E4B70B51E460E4C0025E41AA410A54204D056F82530984781
:402180000135F8E700F0D0FC084B094C1E46E41AA4100025A54204D056F8253098470135F8E770BD342B0000342B0000342B00003C2B000010B5431E0A44914204D011F844
:4021C000014B03F8014FF8E710BD03460244934202D003F8011BFAE7704700000EB400B54FF402719CB0ADF814106FF00041049107914FF6FF711DAB02900690084853F868
:40220000042BADF81610006802A9019300F064F8029B00221A701CB05DF804EB03B0704770B3FF1F2DE9F0478E6882469E420C46914698463ED88A8912F4906F3AD02568F6
:40224000096902236F1A656905EB450595FBF3F57B1C43449D4238BF1D4653050FD5294600F040FB064698B13A462169FFF7A2FFA38923F4906343F08003A38113E02A46E8
:4022800000F08EFB064670B92169504600F0DEFA0C23CAF80030A3894FF0FF3043F04003A381BDE8F08726613E44266046466561ED1BA560464528BF46464946324620685C
:4022C00000F0A8FAA36800209B1BA36023681E442660BDE8F08700002DE9F04F9DB003938B8980461C060D4616460DD50B695BB9402100F0F7FA2860286118B90C23C8F879
:402300000030CDE040236B610023099320238DF82930DFF89CB130238DF82A3037463C4614F8013B1BB9B7EB060910D003E0252BF9D02746F3E74B46324629464046FFF778
:4023400071FF013000F0A780099B4B4409933B78002B00F0A08000234FF0FF3204930793059206938DF853301A930126052221784E4800F041FA671C049B38B14B4A3C4675
:40238000801A06FA00F018430490EFE7D90644BF20228DF853201A0744BF2B228DF8532022782A2A03D0079A00210A200BE0039A111D12680391002A10DA524243F00200FB
:4023C000079204900BE027463B780134303B092B03D800FB02320121F5E701B107923B782E2B1ED17B782A2B0AD1039B02371A1D1B680392002BB8BF4FF0FF33059310E09F
:40240000002319460593781C0A2407463A780130303A092A03D804FB01210123F5E703B1059103223978224800F0E6F940B14023CBEB000003FA00F0049B013718430490E1
:40244000397806221B487E1C8DF8281000F0D4F988B1194B33B9039B073323F007030833039314E003AB00932A46144B04A94046AFF3008007E003AB00932A460F4B04A9C5
:40248000404600F093F8B0F1FF3F824603D0099B5344099342E7AB895B0601D4099801E04FF0FF301DB0BDE8F08F00BFF22A0000F82A0000FC2A00000000000025220000EC
:4024C0002DE9F04791461F460A698B6806469342B8BF1346C9F8003091F843200C46DDF8208012B10133C9F800302368990642BFD9F800300233C9F80030256815F0060581
:4025000010D104F1190A07E00123524639463046C04701301AD00135E368D9F800209B1A9D42F1DB94F843302268003318BF012392060FD5E118302081F843005A1C94F8DC
:4025400045102244023382F8431003E04FF0FF30BDE8F08704F1430239463046C0470130F4D02268D9F80050E36802F00602042A08BF5D1B2269A3680CBF25EAE5750025BA
:402580009342C4BF9B1AED184FF000091A344D4509D00123224639463046C0470130D5D009F10109F3E70020BDE8F0872DE9F04317460A7E85B06E2A984606460C460C9B72
:4025C00001F1430E00F0AE8011D8632A22D009D8002A00F0BB80582A40F0CA8081F84520834955E0642A1ED0692A1CD0C0E0732A00F0B08009D86F2A2ED0702A40F0B8802F
:402600000A6842F020020A603EE0752A24D0782A3AD0ADE01A6801F14205111D1960136884F84230A8E021681A6811F0800F02D0111D196008E011F0400F02F10401196070
:4026400002D0B2F9003000E01368002B3CDA2D225B4284F8432037E021681A6811F0800F02D0111D196007E011F0400F02F10401196001D0138800E01368227E5C496F2ACE
:4026800014BF0A2208221BE078225A4984F845202268186812F0800F00F104051D6003D1550601D5038800E00368D00744BF42F0200222601BB9226822F0200222601022F5
:4026C000002084F8430001E049490A226568002DA56008DB206820F0040020602BB9002D7DD175460CE0002B79D07546B3FBF2F002FB1033CB5C05F8013D03460028F5D1C0
:40270000082A0BD12368DA0708D5236962689A42DEBF302305F8013C05F1FF35C5EB0E0323612EE008681A6810F0800F496903D0101D1860136808E010F0400F02F1040015
:402740001860136801D0198000E0196000232361754616E01A68111D1960156800216268284600F049F808B1401B6060636804E004F1420584F8422001232361002384F837
:402780004330CDF800803B4603AA21463046FFF797FE013002D14FF0FF3026E023692A4639463046C0470130F5D023689B0710D5002504F1190907E001234A463946304687
:4027C000C0470130E7D00135E368039A9B1A9D42F2DBE068039B9842B8BF184605E00B7804F1420584F842308AE705B0BDE8F083032B0000142B000010B5C9B20244904241
:40280000034605D01C7801308C42F8D1184610BD002010BD884210B501EB020301D8421E0BE09842FBD28118D21AD34204D013F8014D01F8014DF8E710BD994204D011F849
:40284000014B02F8014FF8E710BD000038B50546002944D051F8043C0C1F002BB8BFE41800F0D4F81E4A1368114613B96360146030E0A3420DD92268A018834201BF186834
:402880005B681218226063600C6023E0A24203D813465A68002AF9D118681918A1420BD12168014458188242196013D110685268014419605A600DE002D90C232B6009E0C5
:4028C00021686018824201BF106852680918216062605C602846BDE8384000F098B838BDB8D3FF1F70B5CD1C25F0030508350C2D38BF0C25002D064601DBA94202D90C2385
:40290000336046E000F082F8234B1C681A462146A1B10B685B1B0ED40B2B03D90B60CC18CD501EE08C420BBF63684B681360636018BF0C4615E00C464968E9E7174C2368F7
:402940001BB9304600F052F820602946304600F04DF8431C18D0C41C24F00304A0420DD12560304600F053F804F10B00231D20F00700C31A0ED05A42E25070BD211A304643
:4029800000F034F80130EBD10C233360304600F03EF8002070BD00BFB8D3FF1FB4D3FF1FF8B5074615460E4621B91146BDE8F840FFF798BF1AB9FFF749FF2846F8BD00F02E
:4029C00027F885420ED929463846FFF78BFF044650B131462A46FFF7EDFB31463846FFF735FF01E03046F8BD2046F8BD38B5064C0023054608462360FEF7C2F8431C02D1E8
:402A0000236803B12B6038BDC0D3FF1F7047704751F8040C0028BEBF091851F8043CC018043870470000000084040000C6060000A2080000300C0000A90D000067110000DD
:402A4000BC1600002D1C0000811E0000AA210000603A0000A53C0000C03A0000FB370000743000000200050008000B000E001200190023003200470064008D00C8001B01C2
:402A800090010000040007000A000D001100180022003100460063008C00C7001A018F0100040000434F4D20706F7274204F70656E0D0A0025642C200D00000040510040FC
:402AC000300000000140800400050140000B00140140000800400140000A004C01400002005001402000000073717274000000004300232D302B2000686C4C0065666745F9
:402B000046470030313233343536373839414243444546003031323334353637383961626364656600000000F8B500BFF8BC08BC9E4670474D000000090C0000F8B500BFB7
:402B4000F8BC08BC9E46704729000000602B0000C880FF1FB032000050200000000000000000000000000000000000000000000001000100010001000100020002000200CB
:402B800003000300040004000500050006000600070007000800090009000A000B000C000D000D000E000F001000110012001300140015001600170019001A001B001C006B
:402BC0001E001F0020002200230024002600270029002A002C002E002F00310033003400360038003A003C003D003F00410043004500470049004B004D0050005200540007
:402C0000560059005B005D00600062006400670069006C006E0071007400760079007C007E008100840087008A008D0090009300960099009C009F00A200A500A800AC00C4
:402C4000AF00B200B600B900BC00C000C300C700CA00CE00D200D500D900DD00E000E400E800EC00F000F400F800FC000001040108010C011101150119011D012201260153
:402C80002B012F01340138013D01410146014B015001540159015E01630168016D01720177017C01810186018C01910196019C01A101A601AC01B101B701BC01C201C80130
:402CC000CE01D301D901DF01E501EB01F101F701FD01030209020F0216021C02220229022F0236023C0243024902500257025D0264026B0272027902800287028E029502E2
:402D00009C02A302AB02B202B902C102C802D002D702DF02E602EE02F602FE0206030D0315031D0325032D0336033E0346034E0357035F0368037003790381038A039303D1
:402D40009B03A403AD03B603BF03C803D103DA03E303EC03F603FF03080412041B0425042F04380442044C0455045F04690473047D04870492049C04A604B004BB04C50460
:402D8000D004DA04E504EF04FA04050510051B05260531053C05470552055D05680574057F058B059605A205AD05B905C505D105DD05E905F50501060D06190625063106F0
:402DC0003E064A065706630670067C0689069606A306B006BD06CA06D706E406F106FE060C0719072707340742074F075D076B07790786079407A207B007BF07CD07DB070D
:402E0000E907F807060815082308320841084F085E086D087C088B089A08A908B908C808D708E708F6080609150925093509440954096409740984099409A409B509C50941
:402E4000D509E609F609070A170A280A390A4A0A5A0A6B0A7C0A8E0A9F0AB00AC10AD20AE40AF50A070B180B2A0B3C0B4E0B5F0B710B830B950BA70BBA0BCC0BDE0BF00B4D
:402E8000030C150C280C3B0C4D0C600C730C860C990CAC0CBF0CD20CE50CF80C0C0D1F0D320D460D590D6D0D810D950DA80DBC0DD00DE40DF80D0C0E210E350E490E5E0E0F
:402EC000720E870E9B0EB00EC50ED90EEE0E030F180F2D0F420F570F6C0F820F970FAC0FC20FD70FED0F031018102E1044105A10701086109C10B210C810DE10F4100B11B3
:402F0000211138114E1165117B119211A911C011D611ED1104121B1232124A12611278128F12A712BE12D612ED1205131D1334134C1364137C139413AC13C413DC13F4138A
:402F40000C1424143D1455146E1486149F14B714D014E81401151A1533154C1565157E159715B015C915E215FB1515162E16471661167A169416AD16C716E116FA16141725
:402F80002E17481762177B179517AF17CA17E417FE17181832184D18671881189C18B618D118EB18061920193B19561971198B19A619C119DC19F719121A2D1A481A631A61
:402FC0007E1A991AB41AD01AEB1A061B221B3D1B581B741B8F1BAB1BC61BE21BFE1B191C351C511C6C1C881CA41CC01CDC1CF71C131D2F1D4B1D671D831D9F1DBB1DD81D53
:40300000F41D101E2C1E481E641E811E9D1EB91ED61EF21E0E1F2B1F471F631F801F9C1FB91FD51FF21F0E202B204820642081209D20BA20D720F32010212D214A2166213C
:403040008321A021BD21D921F621132230224D226A228622A322C022DD22FA221723342351236E238A23A723C423E123FE231B243824552472248F24AC24C924E6240325AB
:4030800020253D255A2577259325B025CD25EA250726242641265E267B269826B526D226EE260B272827452762277F279C27B827D527F2270F282C284828652882289F284C
:4030C000BB28D828F52811292E294A2967298429A029BD29D929F629122A2F2A4B2A682A842AA02ABD2AD92AF52A122B2E2B4A2B662B822B9F2BBB2BD72BF32B0F2C2B2CF7
:40310000472C632C7F2C9A2CB62CD22CEE2C0A2D252D412D5D2D782D942DAF2DCB2DE62D022E1D2E382E542E6F2E8A2EA52EC02EDC2EF72E122F2D2F472F622F7D2F982F95
:40314000B32FCD2FE82F03301D30383052306D308730A130BB30D630F0300A3124313E31583172318C31A531BF31D931F2310C3225323F32583272328B32A432BD32D63221
:40318000EF32083321333A3353336B3384339D33B533CE33E633FE3317342F3447345F3477348F34A734BF34D634EE3406351D3534354C3563357A359135A835BF35D63590
:4031C000ED3504361B36313648365E3675368B36A136B736CD36E336F9360F3725373A37503766377B379037A637BB37D037E537FA370E38233838384C38613875388A38BE
:403200009E38B238C638DA38EE380139153929393C3950396339763989399C39AF39C239D539E739FA390C3A1F3A313A433A553A673A793A8B3A9D3AAE3AC03AD13AE23A7B
:40324000F33A053B163B263B373B483B583B693B793B8A3B9A3BAA3BBA3BCA3BD93BE93BF83B083C173C263C363C453C533C623C713C7F3C8E3C9C3CAA3CB93CC73CD53C59
:40328000E23CF03CFE3C0B3D183D263D333D403D4D3D5A3D663D733D7F3D8C3D983DA43DB03DBC3DC83DD33DDF3DEA3DF63D013E0C3E173E223E2C3E373E423E4C3E563EC2
:4032C000603E6A3E743E7E3E883E913E9B3EA43EAD3EB63EBF3EC83ED13ED93EE23EEA3EF23EFB3E033F0A3F123F1A3F213F293F303F373F3E3F453F4C3F523F593F5F3FDC
:40330000663F6C3F723F783F7D3F833F893F8E3F933F983F9E3FA23FA73FAC3FB03FB53FB93FBD3FC13FC53FC93FCD3FD03FD43FD73FDA3FDD3FE03FE33FE53FE83FEA3F79
:40334000ED3FEF3FF13FF33FF43FF63FF83FF93FFA3FFB3FFC3FFD3FFE3FFF3FFF3F004000400040004000400040FF3FFF3FFE3FFD3FFC3FFB3FFA3FF93FF83FF63FF43F1D
:40338000F33FF13FEF3FED3FEA3FE83FE53FE33FE03FDD3FDA3FD73FD43FD03FCD3FC93FC53FC13FBD3FB93FB53FB03FAC3FA73FA23F9E3F983F933F8E3F893F833F7D3FF5
:4033C000783F723F6C3F663F5F3F593F523F4C3F453F3E3F373F303F293F213F1A3F123F0A3F033FFB3EF23EEA3EE23ED93ED13EC83EBF3EB63EAD3EA43E9B3E913E883ED7
:403400007E3E743E6A3E603E563E4C3E423E373E2C3E223E173E0C3E013EF63DEA3DDF3DD33DC83DBC3DB03DA43D983D8C3D7F3D733D663D5A3D4D3D403D333D263D183D58
:403440000B3DFE3CF03CE23CD53CC73CB93CAA3C9C3C8E3C7F3C713C623C533C453C363C263C173C083CF83BE93BD93BCA3BBA3BAA3B9A3B8A3B793B693B583B483B373BAA
:40348000263B163B053BF33AE23AD13AC03AAE3A9D3A8B3A793A673A553A433A313A1F3A0C3AFA39E739D539C239AF399C3989397639633950393C39293915390139EE38AA
:4034C000DA38C638B2389E388A38753861384C38383823380E38FA37E537D037BB37A63790377B37663750373A3725370F37F936E336CD36B736A1368B3675365E364836FF
:4035000031361B360436ED35D635BF35A83591357A3563354C3534351D350635EE34D634BF34A7348F3477345F3447342F341734FE33E633CE33B5339D3384336B33533315
:403540003A3321330833EF32D632BD32A4328B32723258323F3225320C32F231D931BF31A5318C31723158313E3124310A31F030D630BB30A13087306D30523038301D3028
:403580000330E82FCD2FB32F982F7D2F622F472F2D2F122FF72EDC2EC02EA52E8A2E6F2E542E382E1D2E022EE62DCB2DAF2D942D782D5D2D412D252D0A2DEE2CD22CB62C5C
:4035C0009A2C7F2C632C472C2B2C0F2CF32BD72BBB2B9F2B822B662B4A2B2E2B122BF52AD92ABD2AA02A842A682A4B2A2F2A122AF629D929BD29A029842967294A292E29B9
:403600001129F528D828BB289F288228652848282C280F28F227D527B8279C277F276227452728270B27EE26D226B52698267B265E26412624260726EA25CD25B02593254E
:4036400077255A253D2520250325E624C924AC248F247224552438241B24FE23E123C423A7238A236E23512334231723FA22DD22C022A32286226A224D2230221322F62120
:40368000D921BD21A021832166214A212D211021F320D720BA209D208120642048202B200E20F21FD51FB91F9C1F801F631F471F2B1F0E1FF21ED61EB91E9D1E811E641E68
:4036C000481E2C1E101EF41DD81DBB1D9F1D831D671D4B1D2F1D131DF71CDC1CC01CA41C881C6C1C511C351C191CFE1BE21BC61BAB1B8F1B741B581B3D1B221B061BEB1A60
:40370000D01AB41A991A7E1A631A481A2D1A121AF719DC19C119A6198B19711956193B1920190619EB18D118B6189C18811867184D1832181818FE17E417CA17AF17951785
:403740007B17621748172E171417FA16E116C716AD1694167A16611647162E161516FB15E215C915B01597157E1565154C1533151A150115E814D014B7149F1486146E1480
:4037800055143D1424140C14F413DC13C413AC1394137C1364134C1334131D130513ED12D612BE12A7128F12781261124A1232121B120412ED11D611C011A91192117B1140
:4037C00065114E11381121110B11F410DE10C810B2109C10861070105A1044102E1018100310ED0FD70FC20FAC0F970F820F6C0F570F420F2D0F180F030FEE0ED90EC50ED6
:40380000B00E9B0E870E720E5E0E490E350E210E0C0EF80DE40DD00DBC0DA80D950D810D6D0D590D460D320D1F0D0C0DF80CE50CD20CBF0CAC0C990C860C730C600C4D0CB4
:403840003B0C280C150C030CF00BDE0BCC0BBA0BA70B950B830B710B5F0B4E0B3C0B2A0B180B070BF50AE40AD20AC10AB00A9F0A8E0A7C0A6B0A5A0A4A0A390A280A170A75
:40388000070AF609E609D509C509B509A4099409840974096409540944093509250915090609F608E708D708C808B908A9089A088B087C086D085E084F08410832082308F4
:4038C00015080608F807E907DB07CD07BF07B007A2079407860779076B075D074F0742073407270719070C07FE06F106E406D706CA06BD06B006A306960689067C06700642
:40390000630657064A063E063106250619060D060106F505E905DD05D105C505B905AD05A20596058B057F05740568055D05520547053C05310526051B0510050505FA0498
:40394000EF04E504DA04D004C504BB04B004A6049C04920487047D04730469045F0455044C04420438042F0425041B0412040804FF03F603EC03E303DA03D103C803BF0374
:40398000B603AD03A4039B0393038A0381037903700368035F0357034E0346033E0336032D0325031D0315030D030603FE02F602EE02E602DF02D702D002C802C102B9023B
:4039C000B202AB02A3029C0295028E0287028002790272026B0264025D0257025002490243023C0236022F02290222021C0216020F0209020302FD01F701F101EB01E5018E
:403A0000DF01D901D301CE01C801C201BC01B701B101AC01A601A1019C01960191018C01860181017C01770172016D01680163015E015901540150014B01460141013D010F
:403A4000380134012F012B01260122011D011901150111010C01080104010001FC00F800F400F000EC00E800E400E000DD00D900D500D200CE00CA00C700C300C000BC004B
:403A8000B900B600B200AF00AC00A800A500A2009F009C0099009600930090008D008A008700840081007E007C0079007600740071006E006C0069006700640062006000CD
:403AC0005D005B00590056005400520050004D004B00490047004500430041003F003D003C003A00380036003400330031002F002E002C002A002900270026002400230010
:403B0000220020001F001E001C001B001A001900170016001500140013001200110010000F000E000D000D000C000B000A000900090008000700070006000600050005006A
:403B40000400040003000300020002000200010001000100010001000000000000000000000000000100000016001F002D0040005D008500BF0011018801180021002F00E5
:403B800043005F008800C20015018A011A001F002C003E0059007E00B200FC0065011C0021002E0041005B008100B500FF0067011E00260035004B0069009300CD001F0199
:403BC00092012000280038004E006C009600D1002301940122002A003A0051006F009A00D5002601970124002C003D00540073009E00D9002A01990126002E0040005700E9
:403C00007700A200DD002E019C012800310042005A007A00A600E10031019E012A00330045005E007E00AA00E5003501A1012C003600480061008200AE00EA003901A30113
:403C40002E0039004C0065008600B300EE003D01A60130003C004F0069008A00B700F3004101A90132003F0052006D008F00BC00F7004501AB0100001F002D0040005D008F
:403C80008500BF0011018801320221002F0043005F008800C20015018A0132021F002C003E0059007E00B200FC006501FA0121002E0041005B008100B500FF006701FA01EE
:403CC000260035004B0069009300CD001F0192013202280038004E006C009600D1002301940132022A003A0051006F009A00D5002601970132022C003D00540073009E00AC
:403D0000D9002A01990132022E00400057007700A200DD002E019C013202310042005A007A00A600E10031019E013202330045005E007E00AA00E5003501A10132023600FE
:403D4000480061008200AE00EA003901A301320239004C0065008600B300EE003D01A60132023C004F0069008A00B700F3004101A90132023F0052006D008F00BC00F700BC
:403D80004501AB0132020000004000400040FF3FFF3FFE3FFD3FFC3FFB3FFA3FF83FF73FF53FF33FF13FEF3FEC3FEA3FE73FE43FE13FDE3FDB3FD73FD43FD03FCC3FC83F0B
:403DC000C43FBF3FBB3FB63FB13FAC3FA73FA23F9C3F973F913F8B3F853F7F3F783F723F6B3F643F5D3F563F4F3F473F403F383F303F283F203F173F0F3F063FFD3EF43EE9
:403E0000EB3EE23ED83ECF3EC53EBB3EB13EA73E9D3E923E883E7D3E723E673E5C3E503E453E393E2D3E213E153E093EFC3DF03DE33DD63DC93DBC3DAF3DA13D933D863D4A
:403E4000783D6A3D5B3D4D3D3F3D303D213D123D033DF43CE43CD53CC53CB53CA53C953C853C743C643C533C423C313C203C0F3CFD3BEC3BDA3BC83BB63BA43B923B7F3BE9
:403E80006D3B5A3B473B343B213B0E3BFA3AE63AD33ABF3AAB3A973A823A6E3A593A453A303A1B3A063AF039DB39C539B0399A3984396E39583941392B391439FD38E63840
:403EC000CF38B838A138893871385A3842382A381238F937E137C837B03797377E3765374B3732371837FF36E536CB36B13697367D36623648362D361236F735DC35C1359D
:403F0000A5358A356E35533537351B35FF34E234C634AA348D347034533436341934FC33DF33C133A333863368334A332C330D33EF32D032B2329332743255323632173218
:403F4000F831D831B93199317931593139311931F930D830B83097307630553034301330F22FD02FAF2F8D2F6C2F4A2F282F062FE42EC22E9F2E7D2E5A2E372E152EF22D9E
:403F8000CF2DAB2D882D652D412D1E2DFA2CD62CB22C8E2C6A2C462C212CFD2BD82BB42B8F2B6A2B452B202BFB2AD62AB02A8B2A652A3F2A1A2AF429CE29A72981295B2902
:403FC00035290E29E728C1289A2873284C282528FE27D627AF278827602738271127E926C1269926712648262026F825CF25A6257E2555252C250325DA24B12488245E24DE
:4040000035240B24E223B8238E2365233B231123E722BC22922268223D221322E821BE21932168213D211221E720BC20912065203A200F20E31FB71F8C1F601F341F081FC0
:40404000DC1EB01E841E581E2B1EFF1DD31DA61D791D4D1D201DF31CC61C991C6C1C3F1C121CE51BB81B8A1B5D1B301B021BD41AA71A791A4B1A1D1AEF19C1199319651912
:4040800037190919DB18AC187E184F182118F217C4179517661737170917DA16AB167C164C161D16EE15BF159015601531150115D214A214731443141314E413B41384130B
:4040C00054132413F412C4129412641234120412D311A311731142111211E110B110801050101F10EE0FBE0F8D0F5C0F2B0FFB0ECA0E990E680E370E060ED50DA40D720DF7
:40410000410D100DDF0CAE0C7C0C4B0C1A0CE80BB70B850B540B230BF10AC00A8E0A5C0A2B0AF909C7099609640932090109CF089D086B0839080708D607A40772074007F6
:404140000E07DC06AA06780646061406E205B0057E054C051A05E704B504830451041F04ED03BB03880356032403F202C0028D025B022902F701C401920160012E01FB0021
:40418000C9009700650032000000CEFF9BFF69FF37FF05FFD2FEA0FE6EFE3CFE09FED7FDA5FD73FD40FD0EFDDCFCAAFC78FC45FC13FCE1FBAFFB7DFB4BFB19FBE6FAB4FA8E
:4041C00082FA50FA1EFAECF9BAF988F956F924F9F2F8C0F88EF85CF82AF8F9F7C7F795F763F731F7FFF6CEF69CF66AF639F607F6D5F5A4F572F540F50FF5DDF4ACF47BF448
:4042000049F418F4E6F3B5F384F352F321F3F0F2BFF28EF25CF22BF2FAF1C9F198F167F136F105F1D5F0A4F073F042F012F0E1EFB0EF80EF4FEF1FEFEEEEBEEE8DEE5DEE5B
:404240002DEEFCEDCCED9CED6CED3CED0CEDDCECACEC7CEC4CEC1CECEDEBBDEB8DEB5EEB2EEBFFEACFEAA0EA70EA41EA12EAE3E9B4E984E955E926E9F7E8C9E89AE86BE8E6
:404280003CE80EE8DFE7B1E782E754E725E7F7E6C9E69BE66DE63FE611E6E3E5B5E587E559E52CE5FEE4D0E4A3E476E448E41BE4EEE3C1E394E367E33AE30DE3E0E2B3E201
:4042C00087E25AE22DE201E2D5E1A8E17CE150E124E1F8E0CCE0A0E074E049E01DE0F1DFC6DF9BDF6FDF44DF19DFEEDEC3DE98DE6DDE42DE18DEEDDDC3DD98DD6EDD44DDF0
:4043000019DDEFDCC5DC9BDC72DC48DC1EDCF5DBCBDBA2DB78DB4FDB26DBFDDAD4DAABDA82DA5ADA31DA08DAE0D9B8D98FD967D93FD917D9EFD8C8D8A0D878D851D82AD8EC
:4043400002D8DBD7B4D78DD766D73FD719D7F2D6CBD6A5D67FD659D632D60CD6E6D5C1D59BD575D550D52AD505D5E0D4BBD496D471D44CD428D403D4DFD3BAD396D372D352
:404380004ED32AD306D3E2D2BFD29BD278D255D231D20ED2EBD1C9D1A6D183D161D13ED11CD1FAD0D8D0B6D094D073D051D030D00ED0EDCFCCCFABCF8ACF69CF48CF28CFA3
:4043C00007CFE7CEC7CEA7CE87CE67CE47CE28CE08CEE9CDCACDABCD8CCD6DCD4ECD30CD11CDF3CCD4CCB6CC98CC7ACC5DCC3FCC21CC04CCE7CBCACBADCB90CB73CB56CB7A
:404400003ACB1ECB01CBE5CAC9CAADCA92CA76CA5BCA3FCA24CA09CAEEC9D3C9B8C99EC983C969C94FC935C91BC901C9E8C8CEC8B5C89BC882C869C850C838C81FC807C892
:40444000EEC7D6C7BEC7A6C78FC777C75FC748C731C71AC703C7ECC6D5C6BFC6A8C692C67CC666C650C63BC625C610C6FAC5E5C5D0C5BBC5A7C592C57EC569C555C541C5DC
:404480002DC51AC506C5F2C4DFC4CCC4B9C4A6C493C481C46EC45CC44AC438C426C414C403C4F1C3E0C3CFC3BEC3ADC39CC38CC37BC36BC35BC34BC33BC32BC31CC30CC355
:4044C000FDC2EEC2DFC2D0C2C1C2B3C2A5C296C288C27AC26DC25FC251C244C237C22AC21DC210C204C2F7C1EBC1DFC1D3C1C7C1BBC1B0C1A4C199C18EC183C178C16EC151
:4045000063C159C14FC145C13BC131C128C11EC115C10CC103C1FAC0F1C0E9C0E0C0D8C0D0C0C8C0C0C0B9C0B1C0AAC0A3C09CC095C08EC088C081C07BC075C06FC069C01F
:4045400064C05EC059C054C04FC04AC045C041C03CC038C034C030C02CC029C025C022C01FC01CC019C016C014C011C00FC00DC00BC009C008C006C005C004C003C002C05E
:4045800001C001C000C000C000C000C000C001C001C002C003C004C005C006C008C009C00BC00DC00FC011C014C016C019C01CC01FC022C025C029C02CC030C034C038C0E4
:4045C0003CC041C045C04AC04FC054C059C05EC064C069C06FC075C07BC081C088C08EC095C09CC0A3C0AAC0B1C0B9C0C0C0C8C0D0C0D8C0E0C0E9C0F1C0FAC003C10CC1B5
:4046000015C11EC128C131C13BC145C14FC159C163C16EC178C183C18EC199C1A4C1B0C1BBC1C7C1D3C1DFC1EBC1F7C104C210C21DC22AC237C244C251C25FC26DC27AC2D2
:4046400088C296C2A5C2B3C2C1C2D0C2DFC2EEC2FDC20CC31CC32BC33BC34BC35BC36BC37BC38CC39CC3ADC3BEC3CFC3E0C3F1C303C414C426C438C44AC45CC46EC481C4B3
:4046800093C4A6C4B9C4CCC4DFC4F2C406C51AC52DC541C555C569C57EC592C5A7C5BBC5D0C5E5C5FAC510C625C63BC650C666C67CC692C6A8C6BFC6D5C6ECC603C71AC7DC
:4046C00031C748C75FC777C78FC7A6C7BEC7D6C7EEC707C81FC838C850C869C882C89BC8B5C8CEC8E8C801C91BC935C94FC969C983C99EC9B8C9D3C9EEC909CA24CA3FCAFF
:404700005BCA76CA92CAADCAC9CAE5CA01CB1ECB3ACB56CB73CB90CBADCBCACBE7CB04CC21CC3FCC5DCC7ACC98CCB6CCD4CCF3CC11CD30CD4ECD6DCD8CCDABCDCACDE9CD02
:4047400008CE28CE47CE67CE87CEA7CEC7CEE7CE07CF28CF48CF69CF8ACFABCFCCCFEDCF0ED030D051D073D094D0B6D0D8D0FAD01CD13ED161D183D1A6D1C9D1EBD10ED2FC
:4047800031D255D278D29BD2BFD2E2D206D32AD34ED372D396D3BAD3DFD303D428D44CD471D496D4BBD4E0D405D52AD550D575D59BD5C1D5E6D50CD632D659D67FD6A5D618
:4047C000CBD6F2D619D73FD766D78DD7B4D7DBD702D82AD851D878D8A0D8C8D8EFD817D93FD967D98FD9B8D9E0D908DA31DA5ADA82DAABDAD4DAFDDA26DB4FDB78DBA2DBBC
:40480000CBDBF5DB1EDC48DC72DC9BDCC5DCEFDC19DD44DD6EDD98DDC3DDEDDD18DE42DE6DDE98DEC3DEEEDE19DF44DF6FDF9BDFC6DFF1DF1DE049E074E0A0E0CCE0F8E058
:4048400024E150E17CE1A8E1D5E101E22DE25AE287E2B3E2E0E20DE33AE367E394E3C1E3EEE31BE448E476E4A3E4D0E4FEE42CE559E587E5B5E5E3E511E63FE66DE69BE686
:40488000C9E6F7E625E754E782E7B1E7DFE70EE83CE86BE89AE8C9E8F7E826E955E984E9B4E9E3E912EA41EA70EAA0EACFEAFFEA2EEB5EEB8DEBBDEBEDEB1CEC4CEC7CEC0D
:4048C000ACECDCEC0CED3CED6CED9CEDCCEDFCED2DEE5DEE8DEEBEEEEEEE1FEF4FEF80EFB0EFE1EF12F042F073F0A4F0D5F005F136F167F198F1C9F1FAF12BF25CF28EF2A1
:40490000BFF2F0F221F352F384F3B5F3E6F318F449F47BF4ACF4DDF40FF540F572F5A4F5D5F507F639F66AF69CF6CEF6FFF631F763F795F7C7F7F9F72AF85CF88EF8C0F820
:40494000F2F824F956F988F9BAF9ECF91EFA50FA82FAB4FAE6FA19FB4BFB7DFBAFFBE1FB13FC45FC78FCAAFCDCFC0EFD40FD73FDA5FDD7FD09FE3CFE6EFEA0FED2FE05FF75
:4049800037FF69FF9BFFCEFF0000320065009700C900FB002E0160019201C401F70129025B028D02C002F202240356038803BB03ED031F0451048304B504E7041A054C0587
:4049C0007E05B005E205140646067806AA06DC060E0740077207A407D607070839086B089D08CF080109320964099609C709F9092B0A5C0A8E0AC00AF10A230B540B850B4E
:404A0000B70BE80B1A0C4B0C7C0CAE0CDF0C100D410D720DA40DD50D060E370E680E990ECA0EFB0E2B0F5C0F8D0FBE0FEE0F1F1050108010B110E110121142117311A311B9
:404A4000D3110412341264129412C412F412241354138413B413E413131443147314A214D2140115311560159015BF15EE151D164C167C16AB16DA160917371766179517AE
:404A8000C417F21721184F187E18AC18DB180919371965199319C119EF191D1A4B1A791AA71AD41A021B301B5D1B8A1BB81BE51B121C3F1C6C1C991CC61CF31C201D4D1D13
:404AC000791DA61DD31DFF1D2B1E581E841EB01EDC1E081F341F601F8C1FB71FE31F0F203A2065209120BC20E72012213D2168219321BE21E82113223D2268229222BC22A4
:404B0000E72211233B2365238E23B823E2230B2435245E248824B124DA2403252C2555257E25A625CF25F8252026482671269926C126E9261127382760278827AF27D62726
:404B4000FE2725284C2873289A28C128E7280E2935295B298129A729CE29F4291A2A3F2A652A8B2AB02AD62AFB2A202B452B6A2B8F2BB42BD82BFD2B212C462C6A2C8E2C40
:404B8000B22CD62CFA2C1E2D412D652D882DAB2DCF2DF22D152E372E5A2E7D2E9F2EC22EE42E062F282F4A2F6C2F8D2FAF2FD02FF22F13303430553076309730B830D8306F
:404BC000F93019313931593179319931B931D831F83117323632553274329332B232D032EF320D332C334A3368338633A333C133DF33FC3319343634533470348D34AA3418
:404C0000C634E234FF341B35373553356E358A35A535C135DC35F73512362D36483662367D369736B136CB36E536FF36183732374B3765377E379737B037C837E137F9377E
:404C400012382A3842385A3871388938A138B838CF38E638FD3814392B39413958396E3984399A39B039C539DB39F039063A1B3A303A453A593A6E3A823A973AAB3ABF3AB4
:404C8000D33AE63AFA3A0E3B213B343B473B5A3B6D3B7F3B923BA43BB63BC83BDA3BEC3BFD3B0F3C203C313C423C533C643C743C853C953CA53CB53CC53CD53CE43CF43CBB
:404CC000033D123D213D303D3F3D4D3D5B3D6A3D783D863D933DA13DAF3DBC3DC93DD63DE33DF03DFC3D093E153E213E2D3E393E453E503E5C3E673E723E7D3E883E923E3F
:404D00009D3EA73EB13EBB3EC53ECF3ED83EE23EEB3EF43EFD3E063F0F3F173F203F283F303F383F403F473F4F3F563F5D3F643F6B3F723F783F7F3F853F8B3F913F973FEF
:404D40009C3FA23FA73FAC3FB13FB63FBB3FBF3FC43FC83FCC3FD03FD43FD73FDB3FDE3FE13FE43FE73FEA3FEC3FEF3FF13FF33FF53FF73FF83FFA3FFB3FFC3FFD3FFE3F30
:404D8000FF3FFF3F004000400000CEFF9BFF69FF37FF05FFD2FEA0FE6EFE3CFE09FED7FDA5FD73FD40FD0EFDDCFCAAFC78FC45FC13FCE1FBAFFB7DFB4BFB19FBE6FAB4FA7D
:404DC00082FA50FA1EFAECF9BAF988F956F924F9F2F8C0F88EF85CF82AF8F9F7C7F795F763F731F7FFF6CEF69CF66AF639F607F6D5F5A4F572F540F50FF5DDF4ACF47BF43C
:404E000049F418F4E6F3B5F384F352F321F3F0F2BFF28EF25CF22BF2FAF1C9F198F167F136F105F1D5F0A4F073F042F012F0E1EFB0EF80EF4FEF1FEFEEEEBEEE8DEE5DEE4F
:404E40002DEEFCEDCCED9CED6CED3CED0CEDDCECACEC7CEC4CEC1CECEDEBBDEB8DEB5EEB2EEBFFEACFEAA0EA70EA41EA12EAE3E9B4E984E955E926E9F7E8C9E89AE86BE8DA
:404E80003CE80EE8DFE7B1E782E754E725E7F7E6C9E69BE66DE63FE611E6E3E5B5E587E559E52CE5FEE4D0E4A3E476E448E41BE4EEE3C1E394E367E33AE30DE3E0E2B3E2F5
:404EC00087E25AE22DE201E2D5E1A8E17CE150E124E1F8E0CCE0A0E074E049E01DE0F1DFC6DF9BDF6FDF44DF19DFEEDEC3DE98DE6DDE42DE18DEEDDDC3DD98DD6EDD44DDE4
:404F000019DDEFDCC5DC9BDC72DC48DC1EDCF5DBCBDBA2DB78DB4FDB26DBFDDAD4DAABDA82DA5ADA31DA08DAE0D9B8D98FD967D93FD917D9EFD8C8D8A0D878D851D82AD8E0
:404F400002D8DBD7B4D78DD766D73FD719D7F2D6CBD6A5D67FD659D632D60CD6E6D5C1D59BD575D550D52AD505D5E0D4BBD496D471D44CD428D403D4DFD3BAD396D372D346
:404F80004ED32AD306D3E2D2BFD29BD278D255D231D20ED2EBD1C9D1A6D183D161D13ED11CD1FAD0D8D0B6D094D073D051D030D00ED0EDCFCCCFABCF8ACF69CF48CF28CF97
:404FC00007CFE7CEC7CEA7CE87CE67CE47CE28CE08CEE9CDCACDABCD8CCD6DCD4ECD30CD11CDF3CCD4CCB6CC98CC7ACC5DCC3FCC21CC04CCE7CBCACBADCB90CB73CB56CB6E
:405000003ACB1ECB01CBE5CAC9CAADCA92CA76CA5BCA3FCA24CA09CAEEC9D3C9B8C99EC983C969C94FC935C91BC901C9E8C8CEC8B5C89BC882C869C850C838C81FC807C886
:40504000EEC7D6C7BEC7A6C78FC777C75FC748C731C71AC703C7ECC6D5C6BFC6A8C692C67CC666C650C63BC625C610C6FAC5E5C5D0C5BBC5A7C592C57EC569C555C541C5D0
:405080002DC51AC506C5F2C4DFC4CCC4B9C4A6C493C481C46EC45CC44AC438C426C414C403C4F1C3E0C3CFC3BEC3ADC39CC38CC37BC36BC35BC34BC33BC32BC31CC30CC349
:4050C000FDC2EEC2DFC2D0C2C1C2B3C2A5C296C288C27AC26DC25FC251C244C237C22AC21DC210C204C2F7C1EBC1DFC1D3C1C7C1BBC1B0C1A4C199C18EC183C178C16EC145
:4051000063C159C14FC145C13BC131C128C11EC115C10CC103C1FAC0F1C0E9C0E0C0D8C0D0C0C8C0C0C0B9C0B1C0AAC0A3C09CC095C08EC088C081C07BC075C06FC069C013
:4051400064C05EC059C054C04FC04AC045C041C03CC038C034C030C02CC029C025C022C01FC01CC019C016C014C011C00FC00DC00BC009C008C006C005C004C003C002C052
:4051800001C001C000C000C000C000C000C001C001C002C003C004C005C006C008C009C00BC00DC00FC011C014C016C019C01CC01FC022C025C029C02CC030C034C038C0D8
:4051C0003CC041C045C04AC04FC054C059C05EC064C069C06FC075C07BC081C088C08EC095C09CC0A3C0AAC0B1C0B9C0C0C0C8C0D0C0D8C0E0C0E9C0F1C0FAC003C10CC1A9
:4052000015C11EC128C131C13BC145C14FC159C163C16EC178C183C18EC199C1A4C1B0C1BBC1C7C1D3C1DFC1EBC1F7C104C210C21DC22AC237C244C251C25FC26DC27AC2C6
:4052400088C296C2A5C2B3C2C1C2D0C2DFC2EEC2FDC20CC31CC32BC33BC34BC35BC36BC37BC38CC39CC3ADC3BEC3CFC3E0C3F1C303C414C426C438C44AC45CC46EC481C4A7
:4052800093C4A6C4B9C4CCC4DFC4F2C406C51AC52DC541C555C569C57EC592C5A7C5BBC5D0C5E5C5FAC510C625C63BC650C666C67CC692C6A8C6BFC6D5C6ECC603C71AC7D0
:4052C00031C748C75FC777C78FC7A6C7BEC7D6C7EEC707C81FC838C850C869C882C89BC8B5C8CEC8E8C801C91BC935C94FC969C983C99EC9B8C9D3C9EEC909CA24CA3FCAF3
:405300005BCA76CA92CAADCAC9CAE5CA01CB1ECB3ACB56CB73CB90CBADCBCACBE7CB04CC21CC3FCC5DCC7ACC98CCB6CCD4CCF3CC11CD30CD4ECD6DCD8CCDABCDCACDE9CDF6
:4053400008CE28CE47CE67CE87CEA7CEC7CEE7CE07CF28CF48CF69CF8ACFABCFCCCFEDCF0ED030D051D073D094D0B6D0D8D0FAD01CD13ED161D183D1A6D1C9D1EBD10ED2F0
:4053800031D255D278D29BD2BFD2E2D206D32AD34ED372D396D3BAD3DFD303D428D44CD471D496D4BBD4E0D405D52AD550D575D59BD5C1D5E6D50CD632D659D67FD6A5D60C
:4053C000CBD6F2D619D73FD766D78DD7B4D7DBD702D82AD851D878D8A0D8C8D8EFD817D93FD967D98FD9B8D9E0D908DA31DA5ADA82DAABDAD4DAFDDA26DB4FDB78DBA2DBB0
:40540000CBDBF5DB1EDC48DC72DC9BDCC5DCEFDC19DD44DD6EDD98DDC3DDEDDD18DE42DE6DDE98DEC3DEEEDE19DF44DF6FDF9BDFC6DFF1DF1DE049E074E0A0E0CCE0F8E04C
:4054400024E150E17CE1A8E1D5E101E22DE25AE287E2B3E2E0E20DE33AE367E394E3C1E3EEE31BE448E476E4A3E4D0E4FEE42CE559E587E5B5E5E3E511E63FE66DE69BE67A
:40548000C9E6F7E625E754E782E7B1E7DFE70EE83CE86BE89AE8C9E8F7E826E955E984E9B4E9E3E912EA41EA70EAA0EACFEAFFEA2EEB5EEB8DEBBDEBEDEB1CEC4CEC7CEC01
:4054C000ACECDCEC0CED3CED6CED9CEDCCEDFCED2DEE5DEE8DEEBEEEEEEE1FEF4FEF80EFB0EFE1EF12F042F073F0A4F0D5F005F136F167F198F1C9F1FAF12BF25CF28EF295
:40550000BFF2F0F221F352F384F3B5F3E6F318F449F47BF4ACF4DDF40FF540F572F5A4F5D5F507F639F66AF69CF6CEF6FFF631F763F795F7C7F7F9F72AF85CF88EF8C0F814
:40554000F2F824F956F988F9BAF9ECF91EFA50FA82FAB4FAE6FA19FB4BFB7DFBAFFBE1FB13FC45FC78FCAAFCDCFC0EFD40FD73FDA5FDD7FD09FE3CFE6EFEA0FED2FE05FF69
:4055800037FF69FF9BFFCEFF0000320065009700C900FB002E0160019201C401F70129025B028D02C002F202240356038803BB03ED031F0451048304B504E7041A054C057B
:4055C0007E05B005E205140646067806AA06DC060E0740077207A407D607070839086B089D08CF080109320964099609C709F9092B0A5C0A8E0AC00AF10A230B540B850B42
:40560000B70BE80B1A0C4B0C7C0CAE0CDF0C100D410D720DA40DD50D060E370E680E990ECA0EFB0E2B0F5C0F8D0FBE0FEE0F1F1050108010B110E110121142117311A311AD
:40564000D3110412341264129412C412F412241354138413B413E413131443147314A214D2140115311560159015BF15EE151D164C167C16AB16DA160917371766179517A2
:40568000C417F21721184F187E18AC18DB180919371965199319C119EF191D1A4B1A791AA71AD41A021B301B5D1B8A1BB81BE51B121C3F1C6C1C991CC61CF31C201D4D1D07
:4056C000791DA61DD31DFF1D2B1E581E841EB01EDC1E081F341F601F8C1FB71FE31F0F203A2065209120BC20E72012213D2168219321BE21E82113223D2268229222BC2298
:40570000E72211233B2365238E23B823E2230B2435245E248824B124DA2403252C2555257E25A625CF25F8252026482671269926C126E9261127382760278827AF27D6271A
:40574000FE2725284C2873289A28C128E7280E2935295B298129A729CE29F4291A2A3F2A652A8B2AB02AD62AFB2A202B452B6A2B8F2BB42BD82BFD2B212C462C6A2C8E2C34
:40578000B22CD62CFA2C1E2D412D652D882DAB2DCF2DF22D152E372E5A2E7D2E9F2EC22EE42E062F282F4A2F6C2F8D2FAF2FD02FF22F13303430553076309730B830D83063
:4057C000F93019313931593179319931B931D831F83117323632553274329332B232D032EF320D332C334A3368338633A333C133DF33FC3319343634533470348D34AA340C
:40580000C634E234FF341B35373553356E358A35A535C135DC35F73512362D36483662367D369736B136CB36E536FF36183732374B3765377E379737B037C837E137F93772
:4058400012382A3842385A3871388938A138B838CF38E638FD3814392B39413958396E3984399A39B039C539DB39F039063A1B3A303A453A593A6E3A823A973AAB3ABF3AA8
:40588000D33AE63AFA3A0E3B213B343B473B5A3B6D3B7F3B923BA43BB63BC83BDA3BEC3BFD3B0F3C203C313C423C533C643C743C853C953CA53CB53CC53CD53CE43CF43CAF
:4058C000033D123D213D303D3F3D4D3D5B3D6A3D783D863D933DA13DAF3DBC3DC93DD63DE33DF03DFC3D093E153E213E2D3E393E453E503E5C3E673E723E7D3E883E923E33
:405900009D3EA73EB13EBB3EC53ECF3ED83EE23EEB3EF43EFD3E063F0F3F173F203F283F303F383F403F473F4F3F563F5D3F643F6B3F723F783F7F3F853F8B3F913F973FE3
:405940009C3FA23FA73FAC3FB13FB63FBB3FBF3FC43FC83FCC3FD03FD43FD73FDB3FDE3FE13FE43FE73FEA3FEC3FEF3FF13FF33FF53FF73FF83FFA3FFB3FFC3FFD3FFE3F24
:40598000FF3FFF3F00400040004000400040FF3FFF3FFE3FFD3FFC3FFB3FFA3FF83FF73FF53FF33FF13FEF3FEC3FEA3FE73FE43FE13FDE3FDB3FD73FD43FD03FCC3FC83F19
:4059C000C43FBF3FBB3FB63FB13FAC3FA73FA23F9C3F973F913F8B3F853F7F3F783F723F6B3F643F5D3F563F4F3F473F403F383F303F283F203F173F0F3F063FFD3EF43ECD
:405A0000EB3EE23ED83ECF3EC53EBB3EB13EA73E9D3E923E883E7D3E723E673E5C3E503E453E393E2D3E213E153E093EFC3DF03DE33DD63DC93DBC3DAF3DA13D933D863D2E
:405A4000783D6A3D5B3D4D3D3F3D303D213D123D033DF43CE43CD53CC53CB53CA53C953C853C743C643C533C423C313C203C0F3CFD3BEC3BDA3BC83BB63BA43B923B7F3BCD
:405A80006D3B5A3B473B343B213B0E3BFA3AE63AD33ABF3AAB3A973A823A6E3A593A453A303A1B3A063AF039DB39C539B0399A3984396E39583941392B391439FD38E63824
:405AC000CF38B838A138893871385A3842382A381238F937E137C837B03797377E3765374B3732371837FF36E536CB36B13697367D36623648362D361236F735DC35C13581
:405B0000A5358A356E35533537351B35FF34E234C634AA348D347034533436341934FC33DF33C133A333863368334A332C330D33EF32D032B23293327432553236321732FC
:405B4000F831D831B93199317931593139311931F930D830B83097307630553034301330F22FD02FAF2F8D2F6C2F4A2F282F062FE42EC22E9F2E7D2E5A2E372E152EF22D82
:405B8000CF2DAB2D882D652D412D1E2DFA2CD62CB22C8E2C6A2C462C212CFD2BD82BB42B8F2B6A2B452B202BFB2AD62AB02A8B2A652A3F2A1A2AF429CE29A72981295B29E6
:405BC00035290E29E728C1289A2873284C282528FE27D627AF278827602738271127E926C1269926712648262026F825CF25A6257E2555252C250325DA24B12488245E24C2
:405C000035240B24E223B8238E2365233B231123E722BC22922268223D221322E821BE21932168213D211221E720BC20912065203A200F20E31FB71F8C1F601F341F081FA4
:405C4000DC1EB01E841E581E2B1EFF1DD31DA61D791D4D1D201DF31CC61C991C6C1C3F1C121CE51BB81B8A1B5D1B301B021BD41AA71A791A4B1A1D1AEF19C11993196519F6
:405C800037190919DB18AC187E184F182118F217C4179517661737170917DA16AB167C164C161D16EE15BF159015601531150115D214A214731443141314E413B4138413EF
:405CC00054132413F412C4129412641234120412D311A311731142111211E110B110801050101F10EE0FBE0F8D0F5C0F2B0FFB0ECA0E990E680E370E060ED50DA40D720DDB
:405D0000410D100DDF0CAE0C7C0C4B0C1A0CE80BB70B850B540B230BF10AC00A8E0A5C0A2B0AF909C7099609640932090109CF089D086B0839080708D607A40772074007DA
:405D40000E07DC06AA06780646061406E205B0057E054C051A05E704B504830451041F04ED03BB03880356032403F202C0028D025B022902F701C401920160012E01FB0005
:405D8000C900970065003200C8D3FF1F7F800000010000004E00000000005898B0300100802FA60401010000000000000000000000000000000000000000000000000000B9
:405DC0000000000000000000F02A00000000000000000000000000000000000000000000000000000000000000000000000000000000000000000000000000000000000089
:405E0000000000000000000010B3FF1F0000000000000000000000000000000000000000000000000000000000000000000000000000000000000000000000000000000081
:405E40000000000000000000000000000000000000000000000000000000000000000000000000000000000000000000000000000000000000000000000000000000000022
:405E800000000000000000000000000000000000000000000000000000000000000000000000000000000000000000000000000000000000000000000000000000000000E2
:405EC00000000000000000000000000000000000000000000000000000000000000000000000000000000000000000000000000000000000000000000000000000000000A2
:405F00000000000000000000000000000000000000000000000000000000000000000000000000000000000000000000000000000000000000000000000000000000000061
:020000040003F7
:0200000480007A
:4000000005520040015A00400164004002650040220001401D0101400B030140090401403B050140610601404507014001090140020B0140010D0140010F0140611401403E
:4000400045150140521601404A1701400418014002190140011B01400840014007410140084201400843014005440140074501400B460140034701400E4801400A490140FC
:40008000034C0140024D01400750014002510140004001201808190479049701850F860F870F06020D010E01130417021C012A043001310433023404360237013F405804C4
:4000C00059045C445F018104850489078F03910499019B069D04A501A706AB04B307BB08D904DC10DF01020203100A02120819021A0A2180220A242027202D102F20300842
:400100003201358037213B403C803D043E1183108502C005C201C402CA60CCB3CEF8E204902092089514961197409D809F01A208A448A720B1801A012801300154405804DA
:400140005B045C045D105F010422050407020A080D220E1112081514168019011D841E021F01241027402D802E122F20361037413C803D043E0145AA4D024F2456825705D1
:400180006010630A66086C056D146E216F01758077028104902092089514961197409D809F01A208A440A720B408C0F0C2F2C472CAF0CCB0CED0D0F0D220D84EE010008219
:4001C00004020618081809090B260C180E02103311031244132C149C160318C119021A381B0D1C1A201A241825252602270A2D10301332E0330F340F351037203A283B087A
:400200003F505409580459045B045C115D105F01800D82108D028F0D9202941095159627970A983899199B06A814AA2BAD13AF0CB003B10FB43CB710B820BB02BF40C03217
:40024000C105C210C404C5E0C6FBC7DCC83EC9FFCAFFCBFFCC22CEF0CF08D004D804D904DA04DC11DD01DF01E2C0E440E501E610E711E8C0E901EB11EC40ED01EE40EF01BB
:4002800000020428050207010A640D220E111208150417021A441C801D2B1E101F20204023012640272829802F2232183501372038403E104081411446084720480149809D
:4002C0004A80500252545D105E825F0467028D048E4090289104920193069610974099029B039E08A201A440A52AA720AB10B501C0F8C2FEC432CA58CCA6CE28D00FD208B0
:40030000D6F0D810E210E640EE41EE01E010EE10E820E20400CD048D056C064007110C020D5C0E0D0F02104D12801303147216081720181019701A601B0C1CCD1D091F10BD
:4003400020012114223224CD251028122A642E80300F311F32803470376039803A223E043F404005450449FF4A074BFF4C404D204EF04F0550085409580459045A045B04BE
:400380005C315D135F01604061A8624063208433860487088C0A8E34911C9303980399019A149B0E9E08A31CA440A501A615A716A833AA0CAB03B10FB210B40FB51AB6604B
:4003C000B880BA20BB22BE04D440D804D904DB04DC33DD10DF0100480340048809800A640E020F08102312881714184019181A041E121FA0200221022340248826222A0833
:400400002B402FA8310233BC362238883E083F0448014B04530858185A8163016401650866108E108F8092E1930194089604974098189A109B409D109F94A026A180A288E6
:40044000A344A820AB04B101B302B601C0ADC2CFC46FCAE3CCAFCE4AD208D60FD878EA100013020406201404163918051A3A1C0E3230360F388040234106450C460B47E073
:40048000482549FF4AFF4BFF4EF04F44500C540158045A045B045C015D335F0166C06A406B028007811A82388480851886048702880189028B188C84900491189280930294
:4004C000945695C1960997389804999C9B039C849D339F44A060A11AA484A582A80AA918AA10B008B27FB30FB5E0B680B713B808BB28BE41D602D72CD804D904DB04DC1193
:40050000DD10DF01008A0308050509800A640D200E121020124818011A811B081D041E02200221142298281029102A0632983301391647144C044F0857425C205D015F880E
:400540006040686469166A406B417180720283088C809040921093019401952896209740980899019A549B089C809D04A002A120A401A608A702A808AA80AD12B204C03F24
:40058000C2EFC40ECA07CC0FCE07D060D220D6F0D801E010EC10EE20B880BE40D804DF011802EC10B4013140320835803C108540CC70CE20E6105F02632094109D80A608DB
:4005C000D680D84083108C1094109D809F02A608A710E68012088C028F0294109F02A608B580C44073407C088240DC01DE0109100E4096409C08B340C206E8040408324011
:4006000045028E409C08B510C004CC08D001E008EE089C08A502A804241027045A8080048F4094109A109F04A002B210B704C8A0D480E68003405006561090089A109F4020
:40064000A002B640C010D4E09C08B502EC08B408E8020012021408120A12100A12141A0A002F1002041D8000011D00000400000084010002070D3810560009000A1D10002A
:400680008402000D600000108402000480020408001D0000020F7F100000800008000002000041042304100006CE0BDF37FFFFFF2200F00804000000000002280404040412
:4006C000111100010000C00040011011C0010011400140010000000000000000000000000000000000E2E20060000100800040808000800000000000200C0C0004000000C0
:40070000000B0B000000E000640000E68200000000000000010E0E000E0000001D001801000000000000000000000000000000000000000000000000000000000000000096
:400740000000000000000000000000000000000000000000000000000000000000000000000000000000000000000000000000000000000000000000000000000000000079
:400780000000000000000000000000000000000000000000000000000000000000000000000000000000000000000000000000000000000000000000000000000000000039
:4007C00000000000000000000000000000000000000000000000000000000000000000000000000000000000000000000000000000000000000000000000000000000000F9
:4008000000000000000000000000000000000000000000000000000000000000000000000000000000000000000000000000000000000000000000000000000000000000B8
:0200000490006A
:0400000000004005B7
:0200000490105A
:04000000BC90ACAF55
:0200000490303A
:0200000080205E
:0200000490402A
:4000000000000000000000000000000000000000000000000000000000000000000000000000000000000000000000000000000000000000000000000000000000000000C0
:400040000000000000000000000000000000000000000000000000000000000000000000000000000000000000000000000000000000000000000000000000000000000080
:400080000000000000000000000000000000000000000000000000000000000000000000000000000000000000000000000000000000000000000000000000000000000040
:4000C0000000000000000000000000000000000000000000000000000000000000000000000000000000000000000000000000000000000000000000000000000000000000
:0200000490501A
:0C00000000012E16106900012E3D9089B1
:00000001FF